:020000040800F2
:1000000048080020D50100089D600008910E0008F6
:1000100099600008990B0008FD65000800000000C9
:100020000000000000000000000000004162000825
:10003000090C000800000000116100085563000869
:10004000EF010008EF010008EF010008EF010008D0
:10005000EF010008EF010008EF010008EF010008C0
:10006000EF010008EF010008EF010008EF010008B0
:10007000EF010008EF010008EF010008EF010008A0
:10008000EF010008EF010008EF010008EF01000890
:10009000EF010008EF010008EF010008EF01000880
:1000A000EF010008EF010008EF010008EF01000870
:1000B000EF010008EF010008EF010008EF01000860
:1000C000EF010008EF010008EF010008EF01000850
:1000D000EF010008B9630008EF010008EF01000814
:1000E000EF010008EF010008EF010008EF01000830
:1000F000EF010008EF010008EF010008EF01000820
:10010000EF010008EF010008EF010008EF0100080F
:10011000EF010008EF010008EF010008EF010008FF
:10012000EF010008EF010008EF010008EF010008EF
:1001300000F002F800F03FF80AA090E8000C8244BA
:100140008344AAF10107DA4501D100F034F8AFF297
:10015000090EBAE80F0013F0010F18BFFB1A43F0A5
:10016000010318474CA200006CA20000103A24BF03
:1001700078C878C1FAD8520724BF30C830C144BF0C
:1001800004680C607047000000230024002500264E
:10019000103A28BF78C1FBD8520728BF30C148BFEA
:1001A0000B607047782900F0ED80002070471FB584
:1001B0001FBD10B510BD00F0AFF91146FFF7F7FFF6
:1001C00006F052FE00F0CDF903B4FFF7F2FF03BCD6
:1001D00006F09AFA0948804709480047FEE7FEE71B
:1001E000FEE7FEE7FEE7FEE7FEE7FEE7FEE7FEE7E7
:1001F00004480549054A064B70470000596300084A
:10020000310100084802002048080020480400206E
:1002100048040020704753EA020C00F069802DE981
:10022000F04B4FF00006002B1FBFB3FA83F503FA23
:1002300005F424FA05F65E4012BF1643B2FA82F5C1
:1002400002FA05F4C5F120051EBF22FA05FC44EAB6
:100250000C04203556EA044C4FEA144418BF641CC1
:100260004FF000084FF00009904271EB030C39D3B6
:10027000002919BFB1FA81F701FA07F6B0FA80F741
:1002800000FA07F6C7F120071EBF20FA07FC46EA6E
:100290000C062037B6FBF4FCA7EB0507103F07F070
:1002A0001F0BCBF120060CFA0BFB2CFA06F644BF11
:1002B000B3460026202FA4BF5E464FF0000B5BEA3A
:1002C000060C08BF4FF0010B19EB0B09ABFB027CCE
:1002D00048EB0608C01B06FB02CC0BFB03CC71EB02
:1002E0000C01C1E70B46024641464846BDE8F08B8B
:1002F00013B54FF000004FF00001AFF30080BDE8F0
:100300001C4070470FB4044910B503AA029800F0CE
:10031000CDF810BC5DF814FB040100202DE9F0417C
:100320000E460446002020622046E168884730B32C
:10033000252805D0D4E901219047206A401CF2E726
:10034000E168204600278847050018D0A5F1410044
:10035000192802D820354FF4006732462946204636
:100360002760FFF71FFF40B1012804D0F61D26F0DB
:1003700007060836D8E7361DD6E72846DAE7206AAA
:10038000BDE8F08170B504460D4621461068AFF314
:1003900000802188090502D50F4A7A4402E00E4AFE
:1003A0007A440E32002104F1240305E000F00F0628
:1003B0000009965D5E54491C0028F7D1207800237F
:1003C000000704D5702D02D009B102231132204656
:1003D000BDE8704000F011B80E9F000070477047F4
:1003E0007047704710B500F073F8006810BD10B585
:1003F000044600F06DF8046010BD2DE9F0470D468D
:1004000099469246044600F124080168880604D5FE
:10041000E06921F01001216000E00120A84201DD27
:10042000471B00E00027A1697A1902EB0900081AAE
:10043000A0612078C00602D42046AFF300800026D9
:1004400008E0D4E901211AF806009047206A401C10
:10045000761C20624E45F4DB2078C0060AD5204683
:10046000AFF3008006E0D4E9012130209047206AF4
:10047000401C2062381EA7F10107F4DC07E0D4E934
:10048000012118F805009047206A401C2062281EB0
:10049000A5F10105F3DC2046AFF3008020780006CB
:1004A00002D50220BDE8F0870120FBE7074B70B5BD
:1004B0000D467B4400F015F80446284600F024F869
:1004C00010B14FF0FF3070BD204670BD5765000081
:1004D00000487047E801002001694A1C0261087861
:1004E000704700B58FB0CDE9013100210591054974
:1004F0007944CDE9031011466846FFF70FFF0FB0AE
:1005000000BD0000E5FFFFFF007B00F080007047AA
:1005100000487047E80100207546FFF7F9FFAE4636
:1005200005006946534620F00700854618B020B5FF
:10053000FFF75EFEBDE820404FF000064FF00007D9
:100540004FF000084FF0000B21F00701AC46ACE87B
:10055000C009ACE8C009ACE8C009ACE8C0098D46E8
:10056000704710B50446AFF300802046BDE8104048
:10057000FFF72ABE10B58021054800F024FC0A20B0
:1005800006F01EFA8021024800F01BFC10BD00009E
:100590000008014010B500F00BF800F08FF8034898
:1005A00000F0E2F8322006F0E5F910BDDD00002091
:1005B00008B50121042005F0B9FD0121042005F052
:1005C000B5FD0121042005F0B1FD0121042005F055
:1005D000ADFD0121042005F0A9FD0121042005F055
:1005E000A5FD0121042005F0A1FD0121082005F051
:1005F0009DFD10208DF8030001208DF802000820D9
:10060000ADF8000069462B4800F0FFFA1020ADF865
:1006100000006946274800F0F8FA4020ADF80000D5
:100620006946244800F0F1FA2020ADF80000694640
:10063000204800F0EAFA8020ADF8000069461D4825
:1006400000F0E3FA4FF48070ADF8000069461948F5
:1006500000F0DBFA0820ADF800006946164800F00B
:10066000D4FA4FF40060ADF8000028208DF80300A4
:100670006946104800F0C9FA08210E4800F0A1FBB5
:1006800040210C4800F09DFB10210A4800F099FB26
:100690000821094800F095FB2021064800F091FB55
:1006A0008021044800F08DFB4FF48071014800F078
:1006B00088FB08BD00080140000C014010B54FF454
:1006C00080710A4800F07DFB0A2006F053F94FF4D0
:1006D0008071064800F077FB0A2006F04BF94FF4D2
:1006E0008071024800F06DFB10BD00000008014061
:1006F0007CB505460C46E8B28DF80500280A8DF851
:100700000400E0B28DF80100200A8DF8000069466F
:1007100001A800F083F97CBD70B50546002400BF38
:100720001DE02878A04000F0800020B140210D4855
:1007300000F049FB03E040210A4800F042FB0120A1
:1007400006F03EF91021074800F03DFB012006F0BD
:1007500037F91021034800F034FB601CC4B2082CA8
:10076000DFDB70BD0008014010B5044608210F48CA
:1007700000F027FB0A2006F023F9FFF7FBFE0C48E8
:10078000FFF7CAFF2046FFF7C7FF601CFFF7C4FF53
:10079000A01CFFF7C1FFE01CFFF7BEFF0A2006F018
:1007A0000FF90821014800F00EFB10BD00080140C0
:1007B000B300002070B504460D462046294600F0DF
:1007C000EDF90821174800F0FCFA012006F0F8F8CE
:1007D000FFF7D0FE1448FFF79FFF1448FFF79CFF78
:1007E0001248401CFFF798FF1048801CFFF794FF49
:1007F0000E48C01CFFF790FF0C48001DFFF78CFF50
:100800000A48401DFFF788FF012006F0D9F80821AB
:10081000044800F0D8FA012006F0D2F805F0DEFE18
:1008200070BD000000080140AE000020F70000206D
:1008300021B1826842F00102826003E0826822F006
:10084000010282607047000010B5044612488442DD
:1008500008D10121401505F079FC0021601505F053
:1008600075FC17E00D48844208D10121001505F000
:100870006DFC0021201505F069FC0BE0084884425E
:1008800008D10121C80305F061FC00214FF40040AC
:1008900005F05CFC10BD0000002401400028014070
:1008A000003C0140014600208A6802F004020AB1BF
:1008B000012000E0002070470146C86C80B27047FC
:1008C0000246002013680B400BB1012000E000201D
:1008D0007047014600208A6802F008020AB1012030
:1008E00000E000207047000030B5024600200023E1
:1008F00050680F4C20400D790C6844EA05242043D1
:10090000506090680B4C2040D1E902542C434D7943
:1009100044EA450420439060D06A20F470000C7CC7
:10092000641EE4B2234340EA0350D06230BD0000AD
:10093000FFFEF0FFFDF7F1FFF0B504460D46002085
:100940000021092D11DDE068A5F10A0606EB460736
:10095000072606FA07F18843A5F10A0606EB4606C4
:1009600003FA06F10843E0600CE0206905EB450757
:10097000072606FA07F1884305EB450603FA06F158
:1009800008432061072A0FDA606B561E06EB8607C4
:100990001F2606FA07F18843561E06EB860605FA5F
:1009A00006F10843606322E00D2A0FDA206BD61FA0
:1009B00006EB86071F2606FA07F18843D61F06EBCB
:1009C000860605FA06F10843206310E0E06AA2F10A
:1009D0000D0606EB86071F2606FA07F18843A2F1EB
:1009E0000D0606EB860605FA06F10843E062F0BD47
:1009F000816841F008018160704721B1826842F44A
:100A0000A002826003E0826822F4A0028260704744
:100A1000816841F0040181607047000070B50546AF
:100A20000C460821144800F0CCF9012005F0C8FF5D
:100A3000FFF7A0FD1148FFF76FFE2846FFF76CFE99
:100A4000681CFFF769FE05F0C9FDFFF793FD0B4831
:100A5000401CFFF761FE2046FFF75EFE601CFFF7BB
:100A60005BFE012005F0ACFF05F0B8FD082102484F
:100A700000F0A9F970BD000000080140B40000209A
:100A800000B587B001214FF4826005F04FFB4FF4B1
:100A9000004005F03FFB0120ADF8040000208DF878
:100AA000070001A9174800F0B0F81748FFF7CCFE7F
:100AB000002002908DF80C008DF80D004FF460209E
:100AC00004900020059001208DF8180002A90E481E
:100AD000FFF70AFF01210C48FFF7AAFE0A48FFF7BB
:100AE00087FF00BF0848FFF7F4FE0028FAD1064848
:100AF000FFF78EFF00BF0448FFF7D4FE0028FAD1AD
:100B000007B000BD001001400028014000B587B0CB
:100B100001214FF4017005F009FB4FF4004005F08E
:100B2000F9FA0420ADF8040000208DF8070001A9AF
:100B3000174800F06AF81748FFF786FE0020029079
:100B40008DF80C008DF80D004FF46020049000200B
:100B5000059001208DF8180002A90E48FFF7C4FE89
:100B600001210C48FFF764FE0A48FFF741FF00BF70
:100B70000848FFF7AEFE0028FAD10648FFF748FF05
:100B800000BF0448FFF78EFE0028FAD107B000BD71
:100B9000000801400024014000BFFEE72DE9FF47A7
:100BA00006460F464FF00048DFF850906FF01F02E6
:100BB000134B3046394607F063FB42464B46CDE9BE
:100BC000000107F0BFF8CDE90201DDE9020107F0FD
:100BD000D9FE04460D464FF0000A00BF09E0CAF1F5
:100BE0000501084A5454200A40EA05642D0A0AF116
:100BF000010ABAF1060FF2DBBDE8FF87DF17B0414B
:100C0000FFFFEF42F700002070472DE9F041024658
:100C100000250026002000230024002791F803C0AF
:100C20000CF00F0591F803C00CF0100CBCF1000F94
:100C300003D091F802C04CEA050591F800C0BCF160
:100C4000000F31D0146800202BE04FF0010C0CFA9B
:100C500000F3B1F800C00CEA03069E4220D18300E5
:100C60004FF00F0C0CFA03F7BC4305FA03FC4CEAF7
:100C7000040491F803C0BCF1280F06D14FF0010C19
:100C80000CFA00FCC2F814C00AE091F803C0BCF1F1
:100C9000480F05D14FF0010C0CFA00FCC2F810C04F
:100CA000401C0828D1D31460B1F800C0BCF1FF0F7C
:100CB00034DD546800202EE000F1080C4FF00108EC
:100CC00008FA0CF3B1F800C00CEA03069E4221D1E9
:100CD00083004FF00F0C0CFA03F7BC4305FA03FC3A
:100CE0004CEA040491F803C0BCF1280F05D100F1CF
:100CF000080C08FA0CF8C2F8148091F803C0BCF193
:100D0000480F07D100F1080C4FF0010808FA0CF861
:100D1000C2F81080401C0828CED35460BDE8F08192
:100D2000F0B50A46002300240021002500F000460B
:100D3000B6F1004F02D11D4EF16901E01B4E716802
:100D4000C0F3034583B200F44016B6F5401F08D146
:100D500021F07061154E766826F07066134F7E6044
:100D600012E000F48016B6F5801F06D1032606FABD
:100D700005F4A14341F0706106E0460D360103FA27
:100D800006F6B14341F0706122B1460D360103FA17
:100D900006F6314300F00046B6F1004F02D1034E93
:100DA000F16101E0014E7160F0BD00000000014002
:100DB0000246002093680B400BB1012000E00020A8
:100DC00070474161704701617047000010B50446EB
:100DD0000723012221460948FFF7AEFD01210748FC
:100DE000FFF70BFE00BF02210448FFF769FD002852
:100DF000F9D00248FFF760FD10BD0000002401405B
:100E000010B504460723012221460948FFF794FD47
:100E100001210748FFF7F1FD00BF02210448FFF759
:100E20004FFD0028F9D00248FFF746FD10BD000035
:100E3000002801402DE9F04107460C460025002618
:100E400008E03846FFF7DCFF0544052005F0B8FD53
:100E5000701CC6B2A642F4DBB5FBF4F080B2BDE86C
:100E6000F0812DE9F04107460C460025002608E0F8
:100E70003846FFF7ABFF0544052005F0A1FD701CC7
:100E8000C6B2A642F4DBB5FBF4F080B2BDE8F08157
:100E900000BFFEE708B50121142005F047F9012144
:100EA0001148FFF73DFF4FF40040ADF80000482027
:100EB0008DF8030069460D48FFF7A7FE2020ADF826
:100EC000000048208DF8030069460948FFF79DFEA1
:100ED0000120ADF8000028208DF803006946034882
:100EE000FFF793FE08BD000000023000000801403B
:100EF0000010014070B5044600261D480588408852
:100F000045431B48808846F60401884216D118489C
:100F10008079012812D10020154988712A20488142
:100F20002B2088810021084604F05CFC0120104938
:100F300088712B2048812A20888103E000210846FF
:100F400004F050FC05F088F800260DE04FF48070A6
:100F500008490861400048610748046080204861F2
:100F6000086180000861761CAE42EFD370BD0000BE
:100F7000D8010020001001400C0C014010B50446BF
:100F8000002C66D16C498871F02008804FF4A07065
:100F900048800846808849F2413188420BD0664833
:100FA000808846F60401884205D06348808845F26F
:100FB000103188421AD12C205F4908812A204881AB
:100FC0002B2088810846808846F60401884205D097
:100FD0005948808845F21031884206D14FF4A070FC
:100FE000554908804FF4F0704880A1E0524880884D
:100FF00045F21051884210D14FF430504E490881CB
:101000004FF4285048814FF42C5088814FF4F070F1
:1010100008804FF4487048808AE04748808841F64D
:10102000631188420DD12C20434908812B2048812F
:101030002A2088814FF4F07008804FF4487048806F
:1010400076E022203C4908812020488121208881A7
:101050006EE00120384988714FF4A0700880F020BC
:1010600048800846808849F24131884205D032489C
:10107000808845F21031884207D12C202E49088102
:101080002A2048812B2088813FE02B48808846F623
:101090000401884207D12C20274908812B20488150
:1010A0002A20888131E02448808845F21051884206
:1010B00010D14FF43050204908814FF42850488116
:1010C0004FF42C5088814FF4487008804FF4F07032
:1010D00048801AE01848808841F6631188420DD193
:1010E0002C20154908812A2048812B2088814FF423
:1010F000487008804FF4F070488006E022200E49C6
:10110000088121204881202088810B48808846F66C
:101110000401884205D00848808845F21031884291
:1011200006D14FF4F070044908804FF4A070488055
:10113000002004F02BF910BDD80100202DE9FF4F4D
:1011400084B081468A460020039002900698A0EB66
:1011500009050798A0EB0A06CDF80490CDF800A089
:10116000002D01DD012705E00DB9002702E04FF059
:10117000FF376D42002E02DD4FF0010806E016B980
:101180004FF0000802E04FF0FF387642B54201DD33
:101190002C4600E034464FF0000B21E0009A91B25B
:1011A000019A90B200F022F8039828440390029824
:1011B000304402900398A04205DD0398001B039081
:1011C0000198384401900298A04205DD0298001B66
:1011D00002900098404400900BF101001FFA80FB40
:1011E000601C8345DADD08B0BDE8F08F30B50446F9
:1011F0000D462946204604F0F5FA04F02DFF4FF481
:101200008070074908614000486106480088064927
:10121000086080200249486108618000086130BD93
:10122000001001400A0100200C0C014070B504467A
:101230000D461646D348808849F24131884205D090
:10124000D048808845F21031884240D1CD49488944
:1012500004F0F0FE4FF48070CB4908614000486113
:101260002012CA4908608020C7494861086180008F
:1012700008614010086140004861E0B2C34908605D
:101280008020C1494861086180000861BD498889A2
:1012900004F0D0FE4FF48070BB4908614000486103
:1012A0002812BA4908608020B74948610861800067
:1012B00008614010086140004861E8B2B349086025
:1012C0008020B14948610861800008613DE1AD4876
:1012D000808845F21051884250D1AA49488904F0CB
:1012E000A9FE4FF48070A8490861400048612012AF
:1012F000A64908608020A44948610861800008610F
:10130000A0494989491C88B204F094FE4FF48070CA
:101310009D49086140004861E0B29C490860802016
:10132000994948610861800008619649888904F0FC
:1013300081FE4FF480709449086140004861281292
:1013400092490860802090494861086180000861E6
:101350008C498989491C88B204F06CFE4FF4807076
:101360008949086140004861E8B2884908608020E6
:1013700085494861086180000861E6E0814880880D
:1013800041F6631188427DD17E48807920B97D483D
:101390000088401E001B84B27A49488904F04AFE46
:1013A0004FF4807078490861400048612012774905
:1013B000086080207449486108618000086140101D
:1013C000086140004861E0B27049086080206E49C1
:1013D0004861086180000861401008614000486170
:1013E00020126A49086080206749486108618000CE
:1013F00008614010086140004861E0B2634908603C
:101400008020614948610861800008615D498889E0
:1014100004F010FE4FF480705B49086140004861A1
:1014200028125A49086080205749486108618000A5
:1014300008614010086140004861E8B25349086003
:1014400080205149486108618000086140100861AE
:101450004000486128124D49086080204A4948618F
:101460000861800008614010086140004861E8B2EE
:10147000464908608020444948610861800008614D
:1014800063E0FFE73F48808846F60401884249D17F
:101490003C488079012804D13A480088401E001B4E
:1014A00084B23849488904F0C5FD4FF4807036494C
:1014B00008614000486120123449086080203249A8
:1014C000486108618000086140100861400048617F
:1014D000E0B22E49086080202B49486108618000F5
:1014E00008612849888904F0A5FD4FF480702649D9
:1014F0000861400048612812244908608020224980
:10150000486108618000086140100861400048613E
:10151000E8B21E49086080201B49486108618000CC
:10152000086112E017488079012804D11548008825
:10153000401E001B84B213494889214604F094FDE3
:1015400010498889294604F08FFD4FF480700E49B8
:101550004861400048610B4800890C4908608020C0
:101560000949486108618000086140100861400035
:101570004861064806608020486108618000086173
:1015800070BD0000D8010020001001400C0C01408B
:101590002DE9FC4F05460E4617469846DDF82C907F
:1015A000002001902C48808846F60401884229D109
:1015B00029488079012825D1AB4635462648008840
:1015C000C01B401E86B2474623480088A0EB0B0094
:1015D000401E1FFA80F800201F4988712A20488188
:1015E0002B20888143463A4631462846CDF8009064
:1015F000FFF7CEFF0120184988712B2048812A204F
:10160000888127E0781B401C80B2019034461FE09F
:101610002146284604F0E6F804F01EFD4FF0000ACB
:1016200011E04FF480700D490861400048610C489A
:10163000C0F80090802048610861800008610AF1CC
:1016400001001FFA80FA01988245EADB601C84B22F
:101650004445DDDDBDE8FC8FD801002000100140CD
:101660000C0C014008B50121192004F05FFD012197
:10167000FE48FFF755FB4FF4F860ADF8000010206E
:101680008DF8030003208DF802006946F848FFF743
:10169000BCFA4FF4F861F648FFF795FB4FF6FF7080
:1016A000ADF800006946F348FFF7AFFA4FF6FF7157
:1016B000F048FFF788FB322005F05CF9012100209B
:1016C00004F0D2FC322005F055F9002003F0ECFDC7
:1016D000E949888008468088FF280ADB0846808818
:1016E0004FF6FF71884204D0E3488088B0F5134F6D
:1016F0007ED1D32004F09EFC03F09EFD03F09CFD00
:1017000003F09AFDDC498880084680884FF6FF7117
:1017100001EA0020D849888003F08EFDD6498988E7
:101720000843D54988800846808849F2413188427B
:101730005ED0BF2004F07EFC03F07EFD03F07CFD54
:1017400003F07AFD03F078FDCB4988800846808855
:101750004FF6FF7101EA0020C749888003F06CFD55
:10176000C54989880843C44988800846808846F668
:101770000401884274D0D42004F05CFC03F05CFDCA
:1017800003F05AFD03F058FDBB4988800846808865
:101790004FF6FF7101EA0020B749888003F04CFD45
:1017A000B54989880843B44988800846808845F24D
:1017B0001031884254D04FF45A4004F03BFC03F0FF
:1017C0003BFD4FF45B4004F035FC03F035FDAA49C6
:1017D0008880084680884FF6FF7101EA0020A649FC
:1017E00088804FF45C4004F025FC03F025FD00E008
:1017F00036E0A149898808439F4988800846808847
:10180000B0F5004F02D145F2105088809A48808888
:1018100045F21051884223D0A12004F00BFC03F0C4
:101820000BFD9549888003F007FD934988800846A1
:1018300080884FF6FF7101EA00208F49888003F00D
:10184000FBFC8D49898808438B498880084680883D
:1018500045F26171884203D141F663108649888060
:101860008548818885A0FEF74DFD8348808849F230
:10187000413188427ED1CF2004F0DCFB002004F00F
:10188000C7FBC12004F0C4FB302004F0C1FBED20F5
:1018900004F0D0FB642004F0BBFB032004F0B8FB91
:1018A000122004F0B5FB812004F0B2FBE82004F024
:1018B000C1FB852004F0ACFB102004F0A9FB7A20CA
:1018C00004F0A6FBCB2004F0B5FB392004F0A0FB0C
:1018D0002C2004F09DFB002004F09AFB342004F03F
:1018E00097FB022004F094FBF72004F0A3FB2020D8
:1018F00004F08EFBEA2004F09DFB002004F088FB3E
:10190000002004F085FBC02004F094FB1B2004F0B1
:101910007FFBC12004F08EFB012004F079FBC52081
:1019200004F088FB302004F073FB302004F070FBDF
:10193000C72004F07FFBB72004F06AFB362004F0D8
:1019400079FB482004F064FB3A2004F073FB552037
:1019500004F05EFBB12004F06DFB002004F058FBA6
:101960001A2004F055FBB62004F064FB0A2004F0B2
:101970004FFB00E0A9E0A22004F04AFBF22004F0B3
:1019800059FB002004F044FB262004F053FB012007
:1019900004F03EFBE02004F04DFB0F2004F038FB88
:1019A0002A2004F035FB282004F032FB082004F044
:1019B0002FFB0E2004F02CFB082004F029FB542000
:1019C00004F026FBA92004F023FB432004F020FBB5
:1019D0000A2004F01DFB0F2004F01AFB002004F085
:1019E00017FB002004F014FB002004F011FB002082
:1019F00004F00EFBE12004F01DFB002004F008FBC6
:101A0000152004F005FB172004F002FB072004F06A
:101A1000FFFA112004F0FCFA062004F0F9FA2B205A
:101A200004F0F6FA562004F0F3FA3C2004F0F0FA41
:101A3000052004F0EDFA102004F0EAFA0F2004F07B
:101A4000E7FA3F2004F0E4FA3F2004F0E1FA0F2027
:101A500004F0DEFA2B2004F0EDFA002004F0D8FAAE
:101A6000002004F0D5FA012010E000000002300050
:101A700000100140000C0140D8010020204C4344DC
:101A80002049443A25780D0A0000000004F0C0FA0D
:101A90003F2004F0BDFA2A2004F0CCFA002004F024
:101AA000B7FA002004F0B4FA002004F0B1FAEF20F5
:101AB00004F0AEFA112004F0BDFA782004F05AFFC9
:101AC000292004F0B7FA03F09ABBFE48808846F656
:101AD000040188427ED1112004F0ACFA142004F0F5
:101AE00049FFD02004F0A6FA072004F091FA422022
:101AF00004F08EFA1D2004F08BFAD12004F09AFA3B
:101B0000002004F085FA1A2004F082FA092004F07B
:101B10007FFAD22004F08EFA012004F079FA222014
:101B200004F076FAC02004F085FA102004F070FA70
:101B30003B2004F06DFA002004F06AFA022004F061
:101B400067FA112004F064FAC52004F073FA032048
:101B500004F05EFAC82004F06DFA002004F058FA90
:101B6000252004F055FA212004F052FA052004F053
:101B70004FFA002004F04CFA0A2004F049FA6520DC
:101B800004F046FA252004F043FA772004F040FAE6
:101B9000502004F03DFA0F2004F03AFA002004F03F
:101BA00037FAF82004F046FA012004F031FAFE205A
:101BB00004F040FA002004F02BFA022004F028FA86
:101BC000202004F037FA362004F034FA082004F01C
:101BD0001FFA00E02AE03A2004F02CFA552004F025
:101BE00017FA2B2004F026FA002004F011FA002046
:101BF00004F00EFA012004F00BFA3F2004F008FA7A
:101C00002A2004F017FA002004F002FA002004F061
:101C1000FFF9012004F0FCF9DF2004F0F9F9782045
:101C200004F0A8FE292004F005FA4CE7A5488088B6
:101C300045F21031884240F07C87ED2004F0FAF93B
:101C4000012004F0E5F9FE2004F0E2F9EE2004F0B2
:101C5000F1F9DE2004F0DCF9212004F0D9F9F120BB
:101C600004F0E8F9012004F0D3F9DF2004F0E2F9F0
:101C7000102004F0CDF9C42004F0DCF98F2004F02A
:101C8000C7F9C62004F0D6F9002004F0C1F9E2201B
:101C900004F0BEF9E22004F0BBF9E22004F0B8F948
:101CA000BF2004F0C7F9AA2004F0B2F9B02004F074
:101CB000C1F90D2004F0ACF9002004F0A9F90D20C1
:101CC00004F0A6F9002004F0A3F9112004F0A0F913
:101CD000002004F09DF9192004F09AF9002004F086
:101CE00097F9212004F094F9002004F091F92D20B7
:101CF00004F08EF9002004F08BF93D2004F088F9FF
:101D0000002004F085F95D2004F082F9002004F041
:101D10007FF95D2004F07CF9002004F079F9B1200E
:101D200004F088F9802004F073F9002004F070F9C1
:101D30008B2004F06DF9002004F06AF9962004F07D
:101D400067F9002004F064F9B22004F073F9002070
:101D500004F05EF9002004F05BF9022004F058F969
:101D6000002004F055F9032004F052F9002004F09B
:101D70004FF9B32004F05EF9002004F049F9002087
:101D800004F046F9002004F043F9002004F040F983
:101D9000002004F03DF9002004F03AF9002004F09E
:101DA00037F9002004F034F9002004F031F9002064
:101DB00004F02EF9002004F02BF9002004F028F99B
:101DC000002004F025F9002004F022F9002004F09E
:101DD0001FF9002004F01CF9002004F019F900207C
:101DE00004F016F9002004F013F9002004F010F9B3
:101DF000002004F00DF9002004F00AF9002004F09E
:101E000007F9002004F004F9B42004F013F98B2042
:101E100004F0FEF8002004F0FBF8962004F0F8F837
:101E2000002004F0F5F8A12004F0F2F8002004F0FE
:101E3000EFF8B52004F0FEF8022004F0E9F80020E5
:101E400004F0E6F8032004F0E3F8002004F0E0F8E2
:101E5000042004F0DDF8002004F0DAF8B62004F0E5
:101E6000E9F8002004F0D4F8002004F0D1F8B720FD
:101E700004F0E0F8002004F0CBF8002004F0C8F8EB
:101E80003F2004F0C5F8002004F0C2F85E2004F002
:101E9000BFF8002004F0BCF8642004F0B9F800207A
:101EA00004F0B6F88C2004F0B3F8002004F0B0F889
:101EB000AC2004F0ADF8002004F0AAF8DC2004F017
:101EC000A7F801E0D8010020002004F0A1F870205C
:101ED00004F09EF8002004F09BF8902004F098F89D
:101EE000002004F095F8EB2004F092F8002004F0B4
:101EF0008FF8DC2004F08CF8002004F089F8B8207A
:101F000004F098F8002004F083F8002004F080F832
:101F1000002004F07DF8002004F07AF8002004F09E
:101F200077F8002004F074F8002004F071F8002025
:101F300004F06EF8BA2004F07DF8242004F068F86C
:101F4000002004F065F8002004F062F8002004F09E
:101F50005FF8C12004F06EF8202004F059F800204A
:101F600004F056F8542004F053F8002004F050F820
:101F7000FF2004F04DF8002004F04AF8C22004F0DD
:101F800059F80A2004F044F8002004F041F8042035
:101F900004F03EF8002004F03BF8C32004F04AF8B7
:101FA0003C2004F035F8002004F032F83A2004F028
:101FB0002FF8002004F02CF8392004F029F8002034
:101FC00004F026F8372004F023F8002004F020F86D
:101FD0003C2004F01DF8002004F01AF8362004F02C
:101FE00017F8002004F014F8322004F011F8002053
:101FF00004F00EF82F2004F00BF8002004F008F88D
:102000002C2004F005F8002004F002F8292003F049
:10201000FFFF002003F0FCFF262003F0F9FF002063
:1020200003F0F6FF242003F0F3FF002003F0F0FF9D
:10203000242003F0EDFF002003F0EAFF232003F04B
:10204000E7FF002003F0E4FF3C2003F0E1FF002065
:1020500003F0DEFF362003F0DBFF002003F0D8FFA3
:10206000322003F0D5FF002003F0D2FF2F2003F031
:10207000CFFF002003F0CCFF2C2003F0C9FF00208D
:1020800003F0C6FF292003F0C3FF002003F0C0FFC8
:10209000262003F0BDFF002003F0BAFF242003F048
:1020A000B7FF002003F0B4FF242003F0B1FF0020AD
:1020B00003F0AEFF232003F0ABFF002003F0A8FFE6
:1020C000C42003F0B7FF622003F0A2FF002003F05A
:1020D0009FFF052003F09CFF002003F099FF842060
:1020E00003F096FF002003F093FFF02003F090FF31
:1020F000002003F08DFF182003F08AFF002003F07A
:1021000087FFA42003F084FF002003F081FF182044
:1021100003F07EFF002003F07BFF502003F078FFE8
:10212000002003F075FF0C2003F072FF002003F085
:102130006FFF172003F06CFF002003F069FF95206C
:1021400003F066FF002003F063FFF32003F060FF5D
:10215000002003F05DFFE62003F05AFF002003F0AB
:1021600057FFC52003F066FF322003F051FF002027
:1021700003F04EFF442003F04BFF002003F048FF24
:10218000652003F045FF002003F042FF762003F0B6
:102190003FFF002003F03CFF882003F039FF0020C0
:1021A00003F036FFC62003F045FF202003F030FF88
:1021B000002003F02DFF172003F02AFF002003F07A
:1021C00027FF012003F024FF002003F021FFC72098
:1021D00003F030FF002003F01BFF002003F018FF86
:1021E000002003F015FF002003F012FFC82003F0C9
:1021F00021FF002003F00CFF002003F009FF002066
:1022000003F006FF002003F003FFC92003F012FFD4
:10221000002003F0FDFE002003F0FAFE002003F092
:10222000F7FE002003F0F4FE002003F0F1FE002092
:1022300003F0EEFE002003F0EBFE002003F0E8FECA
:10224000002003F0E5FE002003F0E2FE002003F092
:10225000DFFE002003F0DCFE002003F0D9FE0020AA
:1022600003F0D6FE002003F0D3FE002003F0D0FEE2
:10227000E02003F0DFFE162003F0CAFE002003F08A
:10228000C7FE1C2003F0C4FE002003F0C1FE212085
:1022900003F0BEFE002003F0BBFE362003F0B8FEC4
:1022A000002003F0B5FE462003F0B2FE002003F04C
:1022B000AFFE522003F0ACFE002003F0A9FE642024
:1022C00003F0A6FE002003F0A3FE7A2003F0A0FE98
:1022D000002003F09DFE8B2003F09AFE002003F007
:1022E00097FE992003F094FE002003F091FEA820B1
:1022F00003F08EFE002003F08BFEB92003F088FE71
:10230000002003F085FEC42003F082FE002003F0CD
:102310007FFECA2003F07CFE002003F079FED2206D
:1023200003F076FE002003F073FED92003F070FE68
:10233000002003F06DFEE02003F06AFE002003F0B1
:1023400067FEF32003F064FE002003F061FEE1204D
:1023500003F070FE162003F05BFE002003F058FE31
:102360001C2003F055FE002003F052FE222003F053
:102370004FFE002003F04CFE362003F049FE002003
:1023800003F046FE452003F043FE002003F040FE2C
:10239000522003F03DFE002003F03AFE642003F0DB
:1023A00037FE002003F034FE7A2003F031FE0020D7
:1023B00003F02EFE8B2003F02BFE002003F028FEFE
:1023C000992003F025FE002003F022FEA82003F050
:1023D0001FFE002003F01CFEB92003F019FE0020B0
:1023E00003F016FEC42003F013FE002003F010FEDD
:1023F000CA2003F00DFE002003F00AFED22003F0F5
:1024000007FE002003F004FED82003F001FE0020A8
:1024100003F0FEFDE02003F0FBFD002003F0F8FDDB
:10242000F32003F0F5FD002003F0F2FDE22003F0BD
:1024300001FE052003F0ECFD002003F0E9FD0B2078
:1024400003F0E6FD002003F0E3FD1B2003F0E0FDB8
:10245000002003F0DDFD342003F0DAFD002003F05E
:10246000D7FD442003F0D4FD002003F0D1FD4F2020
:1024700003F0CEFD002003F0CBFD612003F0C8FD8A
:10248000002003F0C5FD792003F0C2FD002003F019
:10249000BFFD882003F0BCFD002003F0B9FD9720AC
:1024A00003F0B6FD002003F0B3FDA62003F0B0FD5D
:1024B000002003F0ADFDB72003F0AAFD002003F0DB
:1024C000A7FDC22003F0A4FD002003F0A1FDC7205A
:1024D00003F09EFD002003F09BFDD12003F098FD4A
:1024E000002003F095FDD62003F092FD002003F0BC
:1024F0008FFDDD2003F08CFD002003F089FDF3202B
:1025000003F086FD002003F083FDE32003F092FD3D
:10251000052003F07DFD002003F07AFD0A2003F082
:1025200077FD002003F074FD1C2003F071FD0020F6
:1025300003F06EFD332003F06BFD002003F068FD17
:10254000442003F065FD002003F062FD502003F0FD
:102550005FFD002003F05CFD622003F059FD0020C8
:1025600003F056FD782003F053FD002003F050FDEA
:10257000882003F04DFD002003F04AFD972003F072
:1025800047FD002003F044FDA62003F041FD00209C
:1025900003F03EFDB72003F03BFD002003F038FDC3
:1025A000C22003F035FD002003F032FDC72003F008
:1025B0002FFD002003F02CFDD12003F029FD002089
:1025C00003F026FDD52003F023FD002003F020FDBD
:1025D000DD2003F01DFD002003F01AFDF32003F0C1
:1025E00017FD002003F014FDE42003F023FD01207B
:1025F00003F00EFD002003F00BFD012003F008FDA9
:10260000002003F005FD022003F002FD002003F08E
:10261000FFFC2A2003F0FCFC002003F0F9FC3C2026
:1026200003F0F6FC002003F0F3FC4B2003F0F0FC79
:10263000002003F0EDFC5D2003F0EAFC002003F035
:10264000E7FC742003F0E4FC002003F0E1FC8420AC
:1026500003F0DEFC002003F0DBFC932003F0D8FC49
:10266000002003F0D5FCA22003F0D2FC002003F0F0
:10267000CFFCB32003F0CCFC002003F0C9FCBE204B
:1026800003F0C6FC002003F0C3FCC42003F0C0FC30
:10269000002003F0BDFCCD2003F0BAFC002003F0C5
:1026A000B7FCD32003F0B4FC002003F0B1FCDD2024
:1026B00003F0AEFC002003F0ABFCF32003F0A8FC19
:1026C000002003F0A5FCE52003F0B4FC002003F09B
:1026D0009FFC002003F09CFC002003F099FC0020EC
:1026E00003F096FC022003F093FC002003F090FC22
:1026F000292003F08DFC002003F08AFC3C2003F02D
:1027000087FC002003F084FC4B2003F081FC0020B8
:1027100003F07EFC5D2003F07BFC002003F078FCDE
:10272000742003F075FC002003F072FC842003F099
:102730006FFC002003F06CFC932003F069FC002088
:1027400003F066FCA22003F063FC002003F060FCB1
:10275000B32003F05DFC002003F05AFCBE2003F020
:1027600057FC002003F054FCC42003F051FC00206F
:1027700003F04EFCCD2003F04BFC002003F048FC9E
:10278000D32003F045FC002003F042FCDC2003F0E2
:102790003FFC002003F03CFCF32003F039FC002058
:1027A00003F036FCE62003F045FC112003F030FC7A
:1027B000002003F02DFC342003F02AFC002003F05D
:1027C00027FC562003F024FC002003F021FC762097
:1027D00003F01EFC002003F01BFC772003F018FC24
:1027E000002003F015FC662003F012FC002003F02B
:1027F0000FFC882003F00CFC002003F009FC99205A
:1028000003F006FC002003F003FCBB2003F000FCF7
:10281000002003F0FDFB992003F0FAFB002003F0F9
:10282000F7FB662003F0F4FB002003F0F1FB5520DA
:1028300003F0EEFB002003F0EBFB552003F0E8FB78
:10284000002003F0E5FB452003F0E2FB002003F04D
:10285000DFFB432003F0DCFB002003F0D9FB442026
:1028600003F0D6FB002003F0D3FBE72003F0E2FBEC
:10287000322003F0CDFB002003F0CAFB552003F00B
:10288000C7FB002003F0C4FB762003F0C1FB00204F
:1028900003F0BEFB662003F0BBFB002003F0B8FB97
:1028A000672003F0B5FB002003F0B2FB672003F0C4
:1028B000AFFB002003F0ACFB872003F0A9FB002056
:1028C00003F0A6FB992003F0A3FB002003F0A0FB7C
:1028D000BB2003F09DFB002003F09AFB992003F03E
:1028E00097FB002003F094FB772003F091FB00207E
:1028F00003F08EFB442003F08BFB002003F088FBE9
:10290000562003F085FB002003F082FB232003F018
:102910007FFB002003F07CFB332003F079FB0020D9
:1029200003F076FB452003F073FB002003F070FBFF
:10293000E82003F07FFB002003F06AFB002003F097
:1029400067FB992003F064FB002003F061FB872004
:1029500003F05EFB002003F05BFB882003F058FBD4
:10296000002003F055FB772003F052FB002003F01A
:102970004FFB662003F04CFB002003F049FB88204E
:1029800003F046FB002003F043FBAA2003F040FBCA
:10299000002003F03DFBBB2003F03AFB002003F0D6
:1029A00037FB992003F034FB002003F031FB662055
:1029B00003F02EFB002003F02BFB552003F028FB37
:1029C000002003F025FB552003F022FB002003F03C
:1029D0001FFB442003F01CFB002003F019FB4420E4
:1029E00003F016FB002003F013FB552003F010FB4F
:1029F000002003F00DFBE92003F01CFBAA2003F0EC
:102A000007FB002003F004FB002003F001FB002083
:102A100003F0FEFA002003F00DFBAA2003F0F8FA01
:102A2000CF2003F007FB002003F0F2FA002003F0B0
:102A3000EFFA002003F0ECFA002003F0E9FA00209E
:102A400003F0E6FA002003F0E3FA002003F0E0FAD6
:102A5000002003F0DDFA002003F0DAFA002003F092
:102A6000D7FA002003F0D4FA002003F0D1FA0020B6
:102A700003F0CEFA002003F0CBFA002003F0C8FAEE
:102A8000002003F0C5FA002003F0C2FAF02003F0A2
:102A9000D1FA002003F0BCFA502003F0B9FA00206C
:102AA00003F0B6FA002003F0B3FA002003F0B0FA06
:102AB000F32003F0BFFA002003F0AAFAF92003F094
:102AC000B9FA062003F0A4FA102003F0A1FA292095
:102AD00003F09EFA002003F09BFA3A2003F0AAFAD2
:102AE000552003F095FA112003F0A4FA642003F0B6
:102AF00041FF292003F09EFA352003F09BFA0020C5
:102B000003F086FA512003F095FAFF2003F080FAD3
:102B1000532003F08FFA2C2003F07AFA552003F0AB
:102B200089FA822003F074FA2C2003F083FA02F071
:102B300066BBFE48808845F2105188427ED15521FF
:102B40004FF4704003F090FAAA214FF2010003F015
:102B50008BFA52214FF2020003F086FA08214FF25D
:102B6000030003F081FA01214FF2040003F07CFA24
:102B70000D214FF4304003F077FA0D214BF20100A4
:102B800003F072FA0D214BF2020003F06DFA3421CA
:102B90004FF4364003F068FA34214BF2016003F041
:102BA00063FA34214BF2026003F05EFA0D214FF418
:102BB000314003F059FA0D214BF2011003F054FAA1
:102BC0000D214BF2021003F04FFA34214FF437403D
:102BD00003F04AFA34214BF2017003F045FA342134
:102BE0004BF2027003F040FA00214FF4324003F040
:102BF0003BFA00214BF2012003F036FA00214BF2A0
:102C0000022003F031FA24214FF4384003F02CFA6B
:102C100024214BF6010003F027FA24214BF6020091
:102C200003F022FA01214FF43F4003F01DFA0F2177
:102C30004FF4334003F018FA0F2100E0FEE34BF2AB
:102C4000013003F011FA0F214BF2023003F00CFABD
:102C500034214FF4394003F007FA34214BF60110C8
:102C600003F002FA34214BF6021003F0FDF90821BB
:102C70004FF4354003F0F8F908214BF2015003F00E
:102C8000F3F908214BF2025003F0EEF903214FF45F
:102C9000424003F0E9F924214FF43A4003F0E4F90B
:102CA00024214BF6012003F0DFF924214BF602200A
:102CB00003F0DAF900214FF43C4003F0D5F9782114
:102CC0004BF6014003F0D0F900214BF6024003F02F
:102CD000CBF900214FF43D4003F0C6F978214BF6C3
:102CE000015003F0C1F900214BF6025003F0BCF98A
:102CF00000214FF43E4003F0B7F964214BF6016028
:102D000003F0B2F900214FF4514003F0ADF9332143
:102D10004DF2011003F0A8F900214DF2021003F06A
:102D2000A3F934214DF2031003F09EF900214DF276
:102D3000041003F099F93A214DF2051003F094F9CB
:102D400000214DF2061003F08FF94A214DF20710D1
:102D500003F08AF900214DF2081003F085F95C2197
:102D60004DF2091003F080F900214DF20A1003F032
:102D70007BF981214DF20B1003F076F900214DF221
:102D80000C1003F071F9A6214DF20D1003F06CF94F
:102D900000214DF20E1003F067F9E5214DF20F10FE
:102DA00003F062F901214DF2101003F05DF91321D7
:102DB0004DF2111003F058F901214DF2121003F0F9
:102DC00053F954214DF2131003F04EF901214DF245
:102DD000141003F049F982214DF2151003F044F963
:102DE00001214DF2161003F03FF9CA214DF21710E0
:102DF00003F03AF902214DF2181003F035F90021E1
:102E00004DF2191003F030F902214DF21A1003F0BF
:102E10002BF901214DF21B1003F026F902214DF28E
:102E20001C1003F021F934214DF21D1003F01CF9A0
:102E300002214DF21E1003F017F967214DF21F1009
:102E400003F012F902214DF2201003F00DF9842154
:102E50004DF2211003F008F902214DF2221003F087
:102E600003F9A4214DF2231003F0FEF802214DF2E4
:102E7000241003F0F9F8B7214DF2251003F0F4F80F
:102E800002214DF2261003F0EFF8CF214DF227106A
:102E900003F0EAF802214DF2281003F0E5F8DE21F4
:102EA0004DF2291003F0E0F802214DF22A1003F050
:102EB000DBF8F2214DF22B1003F0D6F802214DF28F
:102EC0002C1003F0D1F8FE214DF22D1003F0CCF8B8
:102ED00003214DF22E1003F0C7F810214DF22F10F0
:102EE00003F0C2F803214DF2301003F0BDF8332196
:102EF0004DF2311003F0B8F803214DF2321003F017
:102F0000B3F86D214DF2331003F0AEF800214FF409
:102F1000524003F0A9F833214DF2012003F0A4F848
:102F200000214DF2022003F09FF801E0D8010020BB
:102F300034214DF2032003F097F800214DF20420D4
:102F400003F092F83A214DF2052003F08DF80021AC
:102F50004DF2062003F088F84A214DF2072003F0D5
:102F600083F800214DF2082003F07EF85C214DF239
:102F7000092003F079F800214DF20A2003F074F8DB
:102F800081214DF20B2003F06FF800214DF20C204F
:102F900003F06AF8A6214DF20D2003F065F8002138
:102FA0004DF20E2003F060F8E5214DF20F2003F002
:102FB0005BF801214DF2102003F056F813214DF279
:102FC000112003F051F801214DF2122003F04CF8CA
:102FD00054214DF2132003F047F801214DF2142043
:102FE00003F042F882214DF2152003F03DF8012153
:102FF0004DF2162003F038F8CA214DF2172003F0E5
:1030000033F802214DF2182003F02EF800214DF282
:10301000192003F029F802214DF21A2003F024F8B8
:1030200001214DF21B2003F01FF802214DF21C205C
:1030300003F01AF834214DF21D2003F015F8022197
:103040004DF21E2003F010F867214DF21F2003F00F
:103050000BF802214DF2202003F006F884214DF2F6
:10306000212003F001F802214DF2222002F0FCFFA2
:10307000A4214DF2232002F0F7FF02214DF224207B
:1030800002F0F2FFB7214DF2252002F0EDFF022100
:103090004DF2262002F0E8FFCF214DF2272002F06A
:1030A000E3FF02214DF2282002F0DEFFDE214DF287
:1030B000292002F0D9FF02214DF22A2002F0D4FF8C
:1030C000F2214DF22B2002F0CFFF02214DF22C20F5
:1030D00002F0CAFFFE214DF22D2002F0C5FF0321B0
:1030E0004DF22E2002F0C0FF10214DF22F2002F0F1
:1030F000BBFF03214DF2302002F0B6FF33214DF229
:10310000312002F0B1FF03214DF2322002F0ACFF7A
:103110006D214DF2332002F0A7FF00214FF4534000
:1031200002F0A2FF33214DF2013002F09DFF002199
:103130004DF2023002F098FF34214DF2033002F0DC
:1031400093FF00214DF2043002F08EFF3A214DF240
:10315000053002F089FF00214DF2063002F084FFB5
:103160004A214DF2073002F07FFF00214DF2083076
:1031700002F07AFF5C214DF2093002F075FF002168
:103180004DF20A3002F070FF81214DF20B3002F057
:103190006BFF00214DF20C3002F066FFA6214DF2CC
:1031A0000D3002F061FF00214DF20E3002F05CFFA5
:1031B000E5214DF20F3002F057FF01214DF21030A2
:1031C00002F052FF13214DF2113002F04DFF0121A8
:1031D0004DF2123002F048FF54214DF2133002F04C
:1031E00043FF01214DF2143002F03EFF82214DF2E7
:1031F000153002F039FF01214DF2163002F034FF94
:10320000CA214DF2173002F02FFF02214DF2183083
:1032100002F02AFF00214DF2193002F025FF0221B1
:103220004DF21A3002F020FF01214DF21B3002F066
:103230001BFF02214DF21C3002F016FF34214DF22B
:103240001D3002F011FF02214DF21E3002F00CFF82
:1032500067214DF21F3002F007FF02214DF22030AE
:1032600002F002FF84214DF2213002F0FDFE022126
:103270004DF2223002F0F8FEA4214DF2233002F08C
:10328000F3FE02214DF2243002F0EEFEB7214DF2A2
:10329000253002F0E9FE02214DF2263002F0E4FE74
:1032A000CF214DF2273002F0DFFE02214DF228300F
:1032B00002F0DAFEDE214DF2293002F0D5FE0221C5
:1032C0004DF22A3002F0D0FEF2214DF22B3002F006
:1032D000CBFE02214DF22C3002F0C6FEFE214DF253
:1032E0002D3002F0C1FE03214DF22E3002F0BCFE63
:1032F00010214DF22F3002F0B7FE03214DF2303095
:1033000002F0B2FE33214DF2313002F0ADFE032166
:103310004DF2323002F0A8FE6D214DF2333002F052
:10332000A3FE00214FF4544002F09EFE33214DF2E3
:10333000014002F099FE00214DF2024002F094FE9D
:1033400034214DF2034002F08FFE00214DF2044083
:1033500002F08AFE3A214DF2054002F085FE00217E
:103360004DF2064002F080FE4A214DF2074002F085
:103370007BFE00214DF2084002F076FE5C214DF20A
:10338000094002F071FE00214DF20A4002F06CFE8D
:1033900081214DF20B4002F067FE00214DF20C40FE
:1033A00002F062FEA6214DF20D4002F05DFE00210A
:1033B0004DF20E4002F058FEE5214DF20F4002F0B2
:1033C00053FE01214DF2104002F04EFE13214DF24A
:1033D000114002F049FE01214DF2124002F044FE7C
:1033E00054214DF2134002F03FFE01214DF21440F2
:1033F00002F03AFE82214DF2154002F035FE012125
:103400004DF2164002F030FECA214DF2174002F094
:103410002BFE02214DF2184002F026FE00214DF253
:10342000194002F021FE02214DF21A4002F01CFE6A
:1034300001214DF21B4002F017FE00E004E30221DF
:103440004DF21C4002F010FE34214DF21D4002F0FE
:103450000BFE02214DF21E4002F006FE67214DF2E6
:103460001F4002F001FE02214DF2204002F0FCFD5F
:1034700084214DF2214002F0F7FD02214DF222405D
:1034800002F0F2FDA4214DF2234002F0EDFD0221F5
:103490004DF2244002F0E8FDB7214DF2254002F044
:1034A000E3FD02214DF2264002F0DEFDCF214DF278
:1034B000274002F0D9FD02214DF2284002F0D4FD50
:1034C000DE214DF2294002F0CFFD02214DF22A40CB
:1034D00002F0CAFDF2214DF22B4002F0C5FD02219F
:1034E0004DF22C4002F0C0FDFE214DF22D4002F0C5
:1034F000BBFD03214DF22E4002F0B6FD10214DF22E
:103500002F4002F0B1FD03214DF2304002F0ACFD3E
:1035100033214DF2314002F0A7FD03214DF232403C
:1035200002F0A2FD6D214DF2334002F09DFD00211D
:103530004FF4554002F098FD33214DF2015002F056
:1035400093FD00214DF2025002F08EFD34214DF228
:10355000035002F089FD00214DF2045002F084FD79
:103560003A214DF2055002F07FFD00214DF2065048
:1035700002F07AFD4A214DF2075002F075FD00215C
:103580004DF2085002F070FD5C214DF2095002F03E
:103590006BFD00214DF20A5002F066FD81214DF2D3
:1035A0000B5002F061FD00214DF20C5002F05CFD69
:1035B000A6214DF20D5002F057FD00214DF20E50A4
:1035C00002F052FDE5214DF20F5002F04DFD0121B8
:1035D0004DF2105002F048FD13214DF2115002F04F
:1035E00043FD01214DF2125002F03EFD54214DF2F7
:1035F000135002F039FD01214DF2145002F034FD58
:1036000082214DF2155002F02FFD01214DF216508E
:1036100002F02AFDCA214DF2175002F025FD0221C9
:103620004DF2185002F020FD00214DF2195002F029
:103630001BFD02214DF21A5002F016FD01214DF240
:103640001B5002F011FD02214DF21C5002F00CFD46
:1036500034214DF21D5002F007FD02214DF21E50A3
:1036600002F002FD67214DF21F5002F0FDFC022125
:103670004DF2205002F0F8FC84214DF2215002F06E
:10368000F3FC02214DF2225002F0EEFCA4214DF297
:10369000235002F0E9FC02214DF2245002F0E4FC38
:1036A000B7214DF2255002F0DFFC02214DF22650E9
:1036B00002F0DAFCCF214DF2275002F0D5FC0221B6
:1036C0004DF2285002F0D0FCDE214DF2295002F0DC
:1036D000CBFC02214DF22A5002F0C6FCF2214DF241
:1036E0002B5002F0C1FC02214DF22C5002F0BCFC28
:1036F000FE214DF22D5002F0B7FC03214DF22E5069
:1037000002F0B2FC10214DF22F5002F0ADFC03216B
:103710004DF2305002F0A8FC33214DF2315002F04E
:10372000A3FC03214DF2325002F09EFC6D214DF2BC
:10373000335002F099FC00214FF4564002F094FC03
:1037400033214DF2016002F08FFC00214DF2026046
:1037500002F08AFC34214DF2036002F085FC002166
:103760004DF2046002F080FC3A214DF2056002F057
:103770007BFC00214DF2066002F076FC4A214DF2FE
:10378000076002F071FC00214DF2086002F06CFC51
:103790005C214DF2096002F067FC00214DF20A60E5
:1037A00002F062FC81214DF20B6002F05DFC002111
:1037B0004DF20C6002F058FCA6214DF20D6002F0B3
:1037C00053FC00214DF20E6002F04EFCE5214DF25B
:1037D0000F6002F049FC01214DF2106002F044FC40
:1037E00013214DF2116002F03FFC01214DF21260F5
:1037F00002F03AFC54214DF2136002F035FC012135
:103800004DF2146002F030FC82214DF2156002F09E
:103810002BFC01214DF2166002F026FCCA214DF26C
:10382000176002F021FC02214DF2186002F01CFC2E
:1038300000214DF2196002F017FC02214DF21A60CE
:1038400002F012FC01214DF21B6002F00DFC02217E
:103850004DF21C6002F008FC34214DF21D6002F0B4
:1038600003FC02214DF21E6002F0FEFB67214DF2C7
:103870001F6002F0F9FB02214DF2206002F0F4FB20
:1038800084214DF2216002F0EFFB02214DF2226013
:1038900002F0EAFBA4214DF2236002F0E5FB0221D5
:1038A0004DF2246002F0E0FBB7214DF2256002F0FA
:1038B000DBFB02214DF2266002F0D6FBCF214DF258
:1038C000276002F0D1FB02214DF2286002F0CCFB10
:1038D000DE214DF2296002F0C7FB02214DF22A6081
:1038E00002F0C2FBF2214DF22B6002F0BDFB02217F
:1038F0004DF22C6002F0B8FBFE214DF22D6002F07B
:10390000B3FB03214DF22E6002F0AEFB10214DF20D
:103910002F6002F0A9FB03214DF2306002F0A4FBFE
:1039200033214DF2316002F09FFB03214DF23260F2
:1039300002F09AFB6D214DF2336002F095FB5521A8
:103940004FF4704002F090FBAA214FF2010002F008
:103950008BFB52214FF2020002F086FB08214FF24E
:10396000030002F081FB00214FF2040002F07CFB17
:10397000CC214FF4314002F077FB00214BF20110D3
:1039800002F072FB05214FF4364002F06DFB70210E
:103990004FF4374002F068FB70214BF2017002F0E7
:1039A00063FB01214FF4384002F05EFB03214BF62C
:1039B000010002F059FB03214BF6020002F054FB18
:1039C00003214BF6030002F04FFB02214FF43C4071
:1039D00002F04AFB00214BF6014002F045FB0021BA
:1039E0004BF6024002F040FBD0214FF4494002F078
:1039F0003BFB02214CF6011002F036FB50214CF645
:103A0000021002F031FB50214CF6031002F02CFBA7
:103A100050214CF6041002F027FB00214FF45450C3
:103A200002F022FB55214FF4685002F01DFB4FF4C9
:103A3000885002F0FFFA782002F0C2FF4FF42450C1
:103A400002F0F8FA01F0DBBBFE48808849F225312C
:103A500088427DD147F6F001E52002F005FB4FF4E6
:103A60008071012002F000FB4FF4E061022002F0BF
:103A7000FBFA41F23001032002F0F6FA00210420A3
:103A800002F0F2FA40F20221082002F0EDFA0021E1
:103A9000092002F0E9FA00210A2002F0E5FA0021EB
:103AA0000C2002F0E1FA00210D2002F0DDFA0021E5
:103AB0000F2002F0D9FA0021102002F0D5FA0721D8
:103AC000112002F0D1FA0021122002F0CDFA0021DB
:103AD000132002F0C9FA0021072002F0C5FA41F2D2
:103AE0009061102002F0C0FA40F22721112002F06C
:103AF000BBFA9D21122002F0B7FA4FF4C8511320EF
:103B000002F0B2FA2521292002F0AEFA0D212B2075
:103B100002F0AAFA0721302002F0A6FA40F203319F
:103B2000312002F0A1FA0321322002F09DFA40F286
:103B30000621352002F098FA0821362002F094FA86
:103B400040F20641372002F08FFA4FF4417100E055
:103B500058E0382002F088FA0721392002F084FA70
:103B600040F202613C2002F07FFA08213D2002F081
:103B70007BFA0021502002F077FAEF21512002F069
:103B800073FA0021522002F06FFA40F23F115320E5
:103B900002F06AFA4FF42741602002F065FA012131
:103BA000612002F061FA00216A2002F05DFA002132
:103BB000802002F059FA0021812002F055FA0021FC
:103BC000822002F051FA0021832002F04DFA0021F8
:103BD000842002F049FA0021852002F045FA1021E4
:103BE000902002F041FA4FF4C061922002F03CFABA
:103BF00040F23311072002F037FA2221002002F0B0
:103C000033FA1FE78F48808849F2283188427DD1F6
:103C100041F28F01EC2002F027FA41F23421EF202B
:103C200002F022FA4FF48071012002F01DFA4FF4E5
:103C3000E061022002F018FA41F23001032002F0A4
:103C400013FA0021042002F00FFA40F202210820AA
:103C500002F00AFA0021092002F006FA00210A20E7
:103C600002F002FA01210C2002F0FEF900210D20E1
:103C700002F0FAF900210F2002F0F6F900211020DD
:103C800002F0F2F90721112002F0EEF900211220D2
:103C900002F0EAF90021132002F0E6F901210720E1
:103CA00002F0E2F9322002F065FE41F2904110206C
:103CB00002F0DAF940F22721112002F0D5F9322082
:103CC00002F058FE8A21122002F0CEF9322002F0D2
:103CD00051FE4FF4D051132002F0C6F906212920DD
:103CE00002F0C2F90D212B2002F0BEF9322002F0C1
:103CF00041FE0021202002F0B7F90021212002F02E
:103D0000B3F9322002F036FE002100E075E03020E9
:103D100002F0AAF940F20461312002F0A5F940F264
:103D20000531322002F0A0F90021352002F09CF983
:103D300040F60941362002F097F94FF4017137201F
:103D400002F092F940F20131382002F08DF940F290
:103D50000771392002F088F900213C2002F084F933
:103D600040F60A213D2002F07FF9322002F002FEE7
:103D70000021502002F078F9EF21512002F074F96F
:103D80000021522002F070F940F23F11532002F05E
:103D90006BF94FF42741602002F066F901216120A0
:103DA00002F062F900216A2002F05EF90021802011
:103DB00002F05AF90021812002F056F900218220F8
:103DC00002F052F90021832002F04EF900218420F4
:103DD00002F04AF90021852002F046F910219020D6
:103DE00002F042F94FF4C061922002F03DF940F236
:103DF0003311072002F038F924E61248808849F28E
:103E0000203188427ED10021084602F02DF94FF47E
:103E10008071012002F028F94FF4E061022002F0E5
:103E200023F941F23001032002F01EF900210420A1
:103E300002F01AF940F20221082002F015F90021DF
:103E4000092001E0D801002002F00EF900210A202B
:103E500002F00AF901210C2002F006F900210D20E0
:103E600002F002F900210F2002F0FEF8322002F0E9
:103E700081FD40F20111072002F0F6F8322002F035
:103E800079FD4FF48651102002F0EEF80721112041
:103E900002F0EAF84FF48871122002F0E5F84FF4CE
:103EA0003061132002F0E0F80021292002F0DCF854
:103EB00044F210012B2002F0D7F80021502002F02C
:103EC000D3F8EF21512002F0CFF80021522002F068
:103ED000CBF840F23F11532002F0C6F84FF41C51CA
:103EE000602002F0C1F80121612002F0BDF800213C
:103EF0006A2002F0B9F80021802002F0B5F8002114
:103F0000812000E030E002F0AFF80021822002F0D2
:103F1000ABF80021832002F0A7F80021842002F0F2
:103F2000A3F80021852002F09FF81021902002F0D4
:103F30009BF80021922002F097F80121932002F0D3
:103F400093F84FF48871952002F08EF800219720A5
:103F500002F08AF80021982002F086F840F27311EE
:103F6000072002F081F86DE5FE48808849F2313182
:103F700088427DD141F21401E72002F075F84FF438
:103F80008071012002F070F84FF40071022002F0FD
:103F90006BF841F23801032002F066F840F202218A
:103FA000082002F061F80021092002F05DF80021EC
:103FB0000A2002F059F800210C2002F055F80021E7
:103FC0000D2002F051F800210F2002F04DF80021E1
:103FD000102002F049F80721112002F045F80021D5
:103FE000122002F041F80021132002F03DF8C82011
:103FF00002F0C0FC41F29061102002F035F840F26E
:104000002721112002F030F8322002F0B3FC0C21FD
:10401000122002F029F8322002F0ACFC4FF40061CB
:10402000132002F021F81121292002F01DF80B21A4
:104030002B2002F019F8322002F09CFC00212020F5
:1040400002F012F840F23F11212002F00DF8002199
:10405000302002F009F84FF48371312002F004F8A7
:104060000021322002F000F84FF40171352000E009
:1040700064E001F0F9FF41F20A61362001F0F4FF3B
:1040800040F20771372001F0EFFF4FF483713820C1
:1040900001F0EAFF40F20771392001F0E5FF40F23C
:1040A00002413C2001F0E0FF40F60F413D2001F0CD
:1040B000DBFF0021502001F0D7FFEF21512001F05C
:1040C000D3FF0021522001F0CFFF40F23F115320D7
:1040D00001F0CAFF4FF41C51602001F0C5FF01211F
:1040E000612001F0C1FF00216A2001F0BDFF002125
:1040F000802001F0B9FF0021812001F0B5FF0021EF
:10410000822001F0B1FF0021832001F0ADFF0021EA
:10411000842001F0A9FF0021852001F0A5FF1021D6
:10412000902001F0A1FF4FF4C061922001F09CFFAC
:1041300040F23311072001F097FF83E4894880881B
:1041400045F2084188427DD14FF48071012001F091
:104150008BFF4FF4E061022001F086FF41F2300155
:10416000032001F081FF0021042001F07DFF40F2D7
:104170000721082001F078FF0021092001F074FFD9
:1041800000210A2001F070FF00210C2001F06CFFDB
:1041900000210D2001F068FF00210F2001F064FFD5
:1041A000142002F0E7FB41F2B061102001F05CFF47
:1041B0000121112001F058FF0121172001F054FFC7
:1041C0004FF49C71122001F04FFF4FF40061132057
:1041D00001F04AFF0921292001F046FF09212A2088
:1041E00001F042FF0021A42001F03EFF00215020F9
:1041F00001F03AFFEF21512001F036FF002152205B
:1042000001F032FF40F23F11532001F02DFF4FF437
:104210001C51602001F028FF0121612001F024FFE2
:1042200000216A2001F020FF0021802001F01CFF06
:104230000021812001F018FF0021822001F014FFED
:10424000002100E024E0832001F00EFF0021842003
:1042500001F00AFF0021852001F006FF13219020C4
:1042600001F002FF0021922001F0FEFE03219320C5
:1042700001F0FAFE4FF48871952001F0F5FE40F24E
:104280007311072001F0F0FE322002F073FBB8E456
:104290003448808841F2055188427DD100210720B1
:1042A00001F0E2FE322002F065FB4FF48E71122025
:1042B00001F0DAFE0121A42001F0D6FE0F21082032
:1042C00001F0D2FE08210A2001F0CEFE08210D20C7
:1042D00001F0CAFE40F20771302001F0C5FE07214F
:1042E000312001F0C1FE40F20361322001F0BCFE3A
:1042F0004FF4E061332001F0B7FE40F20221342098
:1043000001F0B2FE0221352001F0AEFE41F60F7140
:10431000362001F0A9FE40F20771372001F0A4FE1B
:104320000021382001F0A0FE0021392001F09CFE80
:1043300040F207713A2001F097FE00213B2001F086
:1043400093FE07213C2001F08FFE00213D2001F06B
:104350008BFE322002F00EFB0121072001F084FECB
:10436000012101E0D8010020172001F07DFE32205C
:1043700002F000FB4FF4BD51102001F075FE40F239
:104380001721112001F070FE4FF48F71122001F0FF
:104390006BFE4FF4706100E098E0132001F064FEC2
:1043A00000212A2001F060FE0A21292001F05CFE94
:1043B0004FF49F71122001F057FE0021502001F0B0
:1043C00053FEEF21512001F04FFE0021522001F059
:1043D0004BFE40F23F11532001F046FE4FF41C51BA
:1043E000602001F041FE0121612001F03DFE00212D
:1043F0006A2001F039FE0021802001F035FE002105
:10440000812001F031FE0021822001F02DFE0021EB
:10441000832001F029FE0021842001F025FE0021E7
:10442000852001F021FE1321902001F01DFE4FF4A4
:104430004071922001F018FE0521932001F014FE36
:104440000021952001F010FE0021972001F00CFEC4
:104450000021982001F008FE4FF48071012001F046
:1044600003FE4FF4E061022001F0FEFD41F238014D
:10447000032001F0F9FD0021042001F0F5FD0021E9
:104480000C2001F0F1FD00210F2001F0EDFD0021D5
:10449000202001F0E9FD0021212001F0E5FD21218E
:1044A000072001F0E1FD142002F064FA61210720E9
:1044B00001F0DAFD142002F05DFA40F273110720DA
:1044C00001F0D2FD142002F055FA95E4FE488088F0
:1044D0004BF2055188427CD10021084601F0C4FD11
:1044E0000021084601F0C0FD0021084601F0BCFD96
:1044F0000021084601F0B8FD0121A42001F0B4FD1F
:10450000142002F037FA4FF41C51602001F0ACFD8A
:1045100040F20221082001F0A7FD4FF40571302080
:1045200001F0A2FD43F21571312001F09DFD40F232
:104530000461322001F098FD40F61661332001F04D
:1045400093FD42F21121342001F08EFD4FF4A85169
:10455000352001F089FD48F20751362001F084FD35
:1045600041F20741372001F07FFD41F2034138203D
:1045700001F07AFD2021392001F076FD1A219020EA
:1045800001F072FD0021102001F06EFD07211120C5
:1045900001F06AFD0021122001F066FD00211320C8
:1045A00001F062FD142002F0E5F94FF4E6611020FD
:1045B00001F05AFD40F23711112001F055FD142091
:1045C00002F0D8F94FF4DC71122001F04DFD1420F7
:1045D00000E085E002F0CEF94FF47061132001F0A5
:1045E00043FD80212A2001F03FFD4821292001F0D0
:1045F0003BFD142002F0BEF94FF48071012001F060
:1046000033FD4FF4E061022001F02EFD41F238014C
:10461000032001F029FD40F20221082001F024FDD1
:1046200000210A2001F020FD00210C2001F01CFDDA
:1046300000210D2001F018FD30210E2001F014FDA5
:104640000021502001F010FDEF21512001F00CFD60
:104650000021522001F008FD40F23F11532001F0EB
:1046600003FD4FF41C51602001F0FEFC012161208C
:1046700001F0FAFC00216A2001F0F6FC11219020E3
:1046800001F0F2FC4FF4C061922001F0EDFC40F229
:104690000241932001F0E8FC0221942001F0E4FCA7
:1046A000142002F067F90121072001F0DDFC14203D
:1046B00002F060F96121072001F0D6FC40F273118D
:1046C000072001F0D1FC0021202001F0CDFC0021C9
:1046D000212001F0C9FC2221002001F0C5FC42E4A8
:1046E000794880884CF2055188427CD100210846E7
:1046F00001F0BAFC0021084601F0B6FC142002F0DB
:1047000039F90021084601F0AFFC0021084601F00C
:10471000ABFC0021084601F0A7FC0021084601F08F
:10472000A3FC0121A42001F09FFC142002F022F937
:104730004FF41C51602001F097FC40F60601082060
:1047400001F092FC40F20371302001F08DFC012158
:10475000312001F089FC0421322001F085FC4FF466
:104760008171332001F080FC4FF44071342001F05E
:104770007BFC40F20311352001F076FC1F2136202E
:1047800001F072FC40F20371372001F06DFC012151
:10479000382001F069FC0421392001F065FC152165
:1047A000902001F061FC4FF48261102001F05CFC6C
:1047B00040F24721112001F057FC4FF4DE71122026
:1047C00001F052FC4FF46061132001F04DFC7820A1
:1047D00002F0D0F84FF48071012001F045FC4FF455
:1047E0000071022000E052E001F03EFC41F2300195
:1047F000032001F039FC08210A2001F035FC0021DA
:104800000C2001F031FC20210E2001F02DFC0021B4
:104810000F2001F029FC0021202001F025FC0021BF
:10482000212001F021FC3D212A2001F01DFC142053
:1048300002F0A0F82D21292001F016FC00215020C3
:1048400001F012FC4DF2EF01512001F00DFC0021AE
:10485000522001F009FC40F23F11532001F004FC0A
:104860000021612001F000FC00216A2001F0FCFB26
:104870004FF44071922001F0F7FB0521932001F0E5
:10488000F3FB4FF48071072001F0EEFB55E40E4876
:10489000808848F6891188427ED10121002001F0EC
:1048A000E3FB4AF6A401032001F0DEFB00210C200B
:1048B00001F0DAFB40F60C010D2001F0D5FB4FF4BE
:1048C0002C510E2002E00000D801002001F0CCFBAA
:1048D000B0211E2001F0C8FB42F63F31012001F05B
:1048E000C3FB4FF4C061022001F0BEFB0021102089
:1048F00001F0BAFB46F27801112001F0B5FB00216E
:10490000052001F0B1FB0021062001F0ADFB4EF6C1
:104910001C71162001F0A8FB0321172001F0A4FB55
:1049200040F23321072001F09FFB00210B2001F012
:104930009BFB00210F2001F097FB0021412001F09B
:1049400093FB0021422001F08FFB0021482001F061
:104950008BFB40F23F11492001F086FB00214A20E9
:1049600001F082FB00214B2001F07EFB4FF46F41F0
:10497000442001F079FB0021452001F075FB40F255
:104980003F11462001F070FB40F20771302001F02A
:104990006BFB4FF4017100E040E0312001F064FB5B
:1049A0004FF40171322001F05FFB40F202513320DD
:1049B00001F05AFB40F20751342001F055FB4FF44F
:1049C0000171352001F050FB4FF40171362001F0E8
:1049D0004BFB40F20251372001F046FB40F202311E
:1049E0003A2001F041FB40F202313B2001F03CFB58
:1049F0000021232001F038FB0021242001F034FBAA
:104A00004FF40041252001F02FFB00214F2001F041
:104A10002BFB00214E2001F027FBF0E3FE488088AD
:104A200044F2315188427DD10121002001F01CFB6C
:104A30000A2001F09FFF41F22861102001F014FBD1
:104A40000E21122001F010FB40F63921132001F055
:104A50000BFB0A2001F08EFF4021112001F004FB26
:104A60005021152001F000FB0A2001F083FF1E21D8
:104A7000122001F0F9FA0A2001F07CFF4FF4B15145
:104A8000102001F0F1FA42F63921132001F0ECFA7E
:104A90000A2001F06FFF4FF48071012001F0E4FA69
:104AA0004FF44071022001F0DFFA41F23801032097
:104AB00001F0DAFA40F20221082001F0D5FA0821CB
:104AC0000A2001F0D1FA0021302001F0CDFA40F2A5
:104AD0000241312001F0C8FA4FF48371322001F015
:104AE000C3FA40F20351332001F0BEFA4FF4827151
:104AF000342001F0B9FA40F20131352001F0B4FA66
:104B000040F20771362001F0AFFA40F2053137204C
:104B100001F0AAFA4FF40271382001F0A5FA40F62C
:104B20000B7100E03CE0392001F09EFA02214120A7
:104B300001F09AFA4FF41C51602001F095FA01211E
:104B4000612001F091FA4FF40471902001F08CFA89
:104B50004FF48571922001F087FA0421932001F02F
:104B600083FA4FF48071A02001F07EFA0121072022
:104B700001F07AFA2121072001F076FA232107209B
:104B800001F072FA3321072001F06EFA40F233117E
:104B9000072001F069FA0021A02001F065FA2EE358
:104BA0009D48808844F2355188427CD130211520BF
:104BB00001F05AFA10219A2001F056FA2021112012
:104BC00001F052FA43F22841102001F04DFA02217F
:104BD000122001F049FA41F23801132001F044FAA1
:104BE000282001F0C7FE1221084601F03DFA2820D6
:104BF00001F0C0FE43F22041102001F035FA43F2EB
:104C00003801132001F030FA462001F0B3FE0021F4
:104C1000302001F029FA40F20241312001F024FA5B
:104C200040F20731322001F01FFA4FF44171332076
:104C300001F01AFA0421342001F016FA40F2014181
:104C4000352001F011FA40F20771362001F00CFA1C
:104C500040F20531372001F007FA4FF4C2613820E5
:104C600001F002FA4FF4C261392001F0FDF94FF46E
:104C70008071012001F0F8F94FF44071022001F039
:104C8000F3F941F23001032001F0EEF940F608019A
:104C9000082001F0E9F908210A2001F0E5F94FF4B4
:104CA0001C51602000E033E001F0DEF901216120B9
:104CB00001F0DAF94FF49F71902001F0D5F94FF42B
:104CC0008071922001F0D0F94FF48071932001F0AF
:104CD000CBF94FF44051A02001F0C6F91021A320D8
:104CE00001F0C2F90121072001F0BEF921210720BE
:104CF00001F0BAF92321072001F0B6F9332107208A
:104D000001F0B2F940F23311072001F0ADF976E27B
:104D10004148808841F663118842F8D1E22001F0D1
:104D200089F94FF480703D490861400048611D20B9
:104D30003B4908608020394948610861800008616A
:104D40004010086140004861022035490860802019
:104D500032494861086180000861401008614000E4
:104D6000486104202E49086080202C494861086170
:104D700080000861642001F023FEE02001F05AF970
:104D80004FF48070254908614000486101202449A2
:104D900008608020214948610861800008610A207C
:104DA00001F0E8FDE02001F045F94FF480701B4967
:104DB00008614000486103201949086080201749B4
:104DC00048610861800008610C2001F0D3FD0120DA
:104DD00001F030F90A2001F0CDFDE62001F02AF9BA
:104DE0004FF480700D490861400048612F200C4944
:104DF000086080200949486108618000086140100E
:104E0000086140004861FF2005490860802003498F
:104E100048610861800005E0D801002000100140D1
:104E20000C0C014008614010086140004861FF20FF
:104E3000F84908608020F8494861086180000861ED
:104E4000B02001F0F7F84FF48070F349086140009A
:104E500048612020EF4908608020EF4948610861DF
:104E60008000086140100861400048610020E94965
:104E700008608020E84948610861800008614010AE
:104E80000861400048610320E24908608020E2494F
:104E90004861086180000861401008614000486175
:104EA00040F21F30DB4908608020DB49486108611F
:104EB0008000086140100861400048610120D54928
:104EC00008608020D4494861086180000861401072
:104ED00008614000486140F2DF10CE490860802040
:104EE000CD494861086180000861401008614000B8
:104EF00048610020C74908608020C74948610861AF
:104F000080000861B42001F095F84FF48070C24928
:104F10000861400048610420BE4908608020BE4905
:104F200048610861800008614010086140004861E4
:104F300040F21F40B74908608020B74948610861C6
:104F40008000086140100861400048610020B149BC
:104F500008608020B0494861086180000861401005
:104F60000861400048612E20AA4908608020AA49B3
:104F70004861086180000861401008614000486194
:104F80000020A44908608020A3494861086180008E
:104F90000861401008614000486100209D49086098
:104FA00080209D49486108618000086140100861C7
:104FB0004000486100209749086080209649486178
:104FC00008618000086140100861400048610020CD
:104FD000904908608020904948610861800008611C
:104FE000B62001F027F84FF480708B49086140002B
:104FF000486102208749086080208749486108612C
:105000008000086140100861400048614FF403705F
:1050100080490860802080494861086180000861FB
:10502000401008614000486100207A4908608020F3
:1050300079494861086180000861401008614000BA
:1050400048611720734908608020734948610861EE
:1050500080000861401008614000486115206D49DA
:10506000086080206C494861086180000861401038
:105070000861400048610020664908608020664958
:105080004861086180000861401008614000486183
:1050900000206049086080205F4948610861800005
:1050A0000861F02000F0C6FF4FF480705A49086193
:1050B00040004861032057490860802056494861F4
:1050C000086180000861292000F0B4FFD02000F0C2
:1050D000B1FF4FF4807050490861400048610020E2
:1050E0004C49086080204C49486108618000086193
:1050F000BE2000F09FFF4FF48070474908614000D8
:10510000486105204349086080204349486108619F
:10511000800008614010086140004861FE203D4960
:10512000086080203C4948610861800008614010A7
:1051300008614000486101203649086080203649F6
:1051400048610861800008614010086140004861C2
:1051500000203049086080202F49486108618000A4
:10516000086140100861400048610020294908603A
:105170008020294948610861800008614010086169
:10518000400048610020234908608020224948618E
:10519000086180000861B82000F04CFF4FF4807077
:1051A0001D4908614000486103201A4908608020B9
:1051B0001949486108618000086140100861400099
:1051C0004861012013490860802013494861086143
:1051D00080000861BA2000F02DFF4FF480700E4966
:1051E00008614000486101200A49086080200A499E
:1051F0004861086180000861642000F05DF80020CB
:10520000FBF7BCFE0120054908604FF6FF70FBF775
:1052100071FE08BD0C0C014000100140A8012242A3
:1052200010B50246012000E050430B1EA1F101041D
:10523000E1B2F9D110BD000010B54FF08830174928
:105240000860091D0860002014490C3108608815A9
:105250001349086140004861402048611148808836
:1052600048F68911884202D1022001F0A9FB0B48BF
:105270000830006884B2402009490861C000086114
:105280004FF0333005490860091D08604FF6FF7084
:1052900002490C310860204610BD0000000C01409E
:1052A00000100140D801002010B50446204600F04F
:1052B000C1FEFFF7C1FF10BD2DE9F0410446BE203D
:1052C00000F0B8FE4FF480702D490861400048613D
:1052D00005202C4908608020294948610861800028
:1052E00008614010086140004861204602F032FF2A
:1052F00005464FF06632244B02F0C2FF074602F02B
:10530000E5FE2049086080201D4948610861800051
:105310000861401008614000486101201949086097
:1053200080201749486108618000086140100861C9
:1053300040004861FF2013490860802010494861FF
:105340000861800008614010086140004861002049
:105350000C49086080200A494861086180000861A2
:105360004010086140004861002006490860802024
:1053700003494861086180000861BDE8F0810000D0
:10538000001001400C0C014066660440F0B5054673
:1053900000240027FC48807901280BD1FA48808836
:1053A00046F60401884205D0F748808841F663112B
:1053B000884208D1F4488079F0B9F348808841F6F2
:1053C0006311884218D1082D15D2DFE805F00406D4
:1053D000080A0C0E101206250DE007250BE0042527
:1053E00009E0052507E0012505E0002503E0032588
:1053F00001E0022500BF00BFE348808849F2413147
:10540000884217D0E048808846F60401884211D0CF
:10541000DD48808845F2103188420BD0DA48808818
:1054200045F21051884205D0D748808841F6631173
:1054300088427DD1082D1CD2DFE805F00406090C56
:105440000F12151800BF14E044F0800411E044F07E
:1054500040040EE044F0C0040BE044F0200408E0F7
:1054600044F0600405E044F0A00402E044F0E004ED
:1054700000BF00BFC448808845F21051884202D165
:105480004FF4585700E03627BF48808845F2103166
:1054900088420DD0BC48808845F21051884207D020
:1054A000B948808841F66311884201D044F008046D
:1054B000B548808846F60401884201D144F00204D0
:1054C0002146384600F0D0FDAF48808841F6631190
:1054D00088421DD004F0200068B1AB480088AA497A
:1054E0004988884214DAA84806884088A649088076
:1054F000084646800CE0A4480088A34949888842B1
:1055000006DDA148068840889F49088008464680F5
:105510009D48808845F2105188427DD19A4948893A
:1055200000F088FD4FF4807098490861400000E069
:1055300030E1486100209649086080209349486125
:1055400008618000086190494989491C88B200F0CF
:1055500071FD4FF480708D49086140004861002062
:105560008B49086080208949486108618000086192
:1055700085494989891C88B200F05CFD4FF4807030
:1055800082490861400048617F480088401E00123F
:105590007F49086080207D4948610861800008617A
:1055A00079494989C91C88B200F044FD4FF48070E4
:1055B000764908614000486173480078401EC0B2D7
:1055C0007349086080207149486108618000086162
:1055D0006D49888900F02EFD4FF480706B49086199
:1055E0004000486100206A4908608020674948619E
:1055F00008618000086164498989491C88B200F00B
:1056000019FD4FF480706149086140004861002035
:105610005F490860802000E035E05C49486108612E
:105620008000086158498989891C88B200F002FD10
:105630004FF48070554908614000486152484088E5
:10564000401E00125249086080205049486108619C
:10565000800008614C498989C91C88B200F0EAFCC5
:105660004FF480704949086140004861464880789D
:10567000401EC0B246490860802044494861086124
:1056800080000861ADE04049488900F0D3FC4FF448
:1056900080703E4908614000486100203C49086034
:1056A00080203A4948610861800008614010086123
:1056B0004000486100203649086080203349486135
:1056C00008618000086140100861400048612E4870
:1056D0000088401E00122E49086080202B49486136
:1056E0000861800008614010086140004861264858
:1056F0000078401EC0B226490860802023494861D6
:105700000861800008612049888900F093FC4FF40B
:1057100080701E4908614000486100201C490860F3
:1057200080201A49486108618000086140100861C2
:1057300040004861002016490860802013494861F4
:1057400008618000086140100861400048610E480F
:105750004088401E00120E49086080200B494861B5
:1057600008618000086140100861400048610648F7
:105770008078401EC0B20649086080200349486115
:105780000861800008612CE0D80100200010014071
:105790000C0C0140082D1CD2DFE805F004070A0DAF
:1057A0000F12151844F0300413E044F0100410E018
:1057B00044F020040DE000BF0BE044F0380408E0A2
:1057C00044F0280405E044F0180402E044F0080422
:1057D00000BF00BF032744F480542146384600F040
:1057E00043FCF0BD30B504460D46EA48808849F2D6
:1057F0004131884205D0E748808845F2103188421F
:1058000040D1E449488900F015FC4FF48070E2492A
:105810000861400048612012E04908608020DE49AC
:1058200048610861800008614010086140004861DB
:10583000E0B2DA4908608020D749486108618000F9
:105840000861D449888900F0F5FB4FF48070D24993
:105850000861400048612812D04908608020CE4984
:10586000486108618000086140100861400048619B
:10587000E8B2CA4908608020C749486108618000D1
:10588000086186E1C348808846F60401884249D110
:10589000C0488079012804D1BE480088401E001B02
:1058A00084B2BC49488900F0C5FB4FF48070BA4906
:1058B0000861400048612012B84908608020B6495C
:1058C000486108618000086140100861400048613B
:1058D000E0B2B24908608020AF49486108618000A9
:1058E0000861AC49888900F0A5FB4FF48070AA4993
:1058F0000861400048612812A84908608020A64934
:1059000048610861800008614010086140004861FA
:10591000E8B2A249086080209F4948610861800080
:10592000086136E19B48808841F6631188427DD149
:105930009848807900283FD196480088401E001B77
:1059400084B29449488900F075FB4FF48070924905
:1059500008614000486100209049086080208E491D
:10596000486108618000086140100861400048619A
:1059700000208A49086080208749486108618000CA
:1059800008614010086140004861201283490860A6
:1059900080208149486108618000086140100861E9
:1059A00040004861E0B27D49086080207A49486142
:1059B00008618000086141E07649488900F03AFBBF
:1059C0004FF48070744908614000486120127349A7
:1059D00008608020704948610861800008614010BB
:1059E000086140004861E0B26C49086080206A4963
:1059F000486108618000086140100861400048610A
:105A000064480088401E0012644908608020624992
:105A100048610861800008614010086140004861E9
:105A20005C480078401EC0B25C4900E047E0086076
:105A3000802059494861086180000861554988897A
:105A400000F0F8FA4FF48070534908614000486153
:105A500028125249086080204F494861086180003F
:105A600008614010086140004861E8B24B49086095
:105A70008020494948610861800008614010086140
:105A80004000486143484088401E00124349086076
:105A90008020414948610861800008614010086128
:105AA000400048613B488078401EC0B23B490860D6
:105AB00080203949486108618000086169E0354803
:105AC000808845F21051884250D13249488900F00F
:105AD000B1FA4FF4807030490861400048612012EB
